:100000000C942A000C9447000C9447000C94470071
:100010000C9447000C9447000C9447000C94470044
:100020000C9447000C9447000C9447000C94470034
:100030000C9447000C9447000C9447000C94470024
:100040000C9447000C9447000C9447000C94470014
:100050000C94470011241FBECFE5D4E0DEBFCDBF16
:1000600010E0A0E6B0E0E8E4FEE102C005900D92E9
:10007000A039B107D9F710E0A0E9B0E001C01D92A6
:10008000AA39B107E1F70E946D0E0C94220F0C946F
:100090000000EF92FF920F931F937B018C0120E0F1
:1000A00030E040E05FE40E94490388238CF0C801FF
:1000B000B70120E030E040E05FE40E94C1010E940F
:1000C000A9039B01AC01205030404040504806C07D
:1000D000C801B7010E94A9039B01AC01B901CA0183
:1000E0001F910F91FF90EF900895A0E0B0E0EBE733
:1000F000F0E00C94C50EDC012B01FA019C919230CA
:1001000008F439C1EB018881823008F433C194309E
:1001100069F4843009F02FC111969C91119789815F
:10012000981709F428C1A0E6B0E025C1843009F48D
:1001300021C18230A9F4923009F01DC19A01AD01AC
:1001400088E0EA010990AE01E90109929E0181501F
:10015000C1F7E201898111969C918923818308C1AD
:10016000923009F407C112962D903C901397EB0141
:100170008A819B811496AD90BD90CD90DC901797AD
:10018000EC80FD800E811F819101281B390BB90184
:1001900037FF04C066277727621B730B6032710537
:1001A0000CF061C0121613066CF537014801062EDB
:1001B00004C096948794779467940A94D2F721E0C8
:1001C00030E040E050E004C0220F331F441F551FB1
:1001D0006A95D2F721503040404050402E213F21B7
:1001E00040235123211531054105510521F021E01E
:1001F00030E040E050E079018A01E628F72808293C
:1002000019293CC0232BD1F1260E371E350146019A
:10021000062E04C096948794779467940A94D2F734
:1002200021E030E040E050E004C0220F331F441FC3
:10023000551F6A95D2F721503040404050402A2146
:100240003B214C215D21211531054105510521F04E
:1002500021E030E040E050E059016A01A628B728CB
:10026000C828D9280BC0821593052CF01C01AA249C
:10027000BB24650103C0EE24FF24870111969C91E5
:10028000D20111968C91981709F445C0992339F041
:10029000A80197012A193B094C095D0906C0A6016E
:1002A00095012E193F09400B510B57FD08C01182D3
:1002B0003382228224833583468357831DC081E0A5
:1002C00081833382228288279927DC01821B930B4A
:1002D000A40BB50B84839583A683B7830DC0220F2F
:1002E000331F441F551F24833583468357838281E0
:1002F000938101979383828324813581468157813D
:10030000DA01C9010197A109B1098F5F9F4FAF4F72
:10031000BF4328F30BC0918333822282EA0CFB1C7B
:100320000C1D1D1DE482F5820683178383E0808304
:10033000248135814681578157FF1AC0C901AA27F8
:1003400097FDA095BA2F81709070A070B0705695EF
:10035000479537952795822B932BA42BB52B848318
:100360009583A683B7838281938101969383828349
:10037000DF0101C0D201CD01CDB7DEB7E2E10C94BF
:10038000E10EA0E2B0E0E7ECF1E00C94D10E69835D
:100390007A838B839C832D833E834F835887E9E048
:1003A000EE2EF12CEC0EFD1ECE010196B7010E943F
:1003B000D2048E010F5E1F4FCE010596B8010E9438
:1003C000D2048A8991E089278A8BC701B801AE01DE
:1003D000475E5F4F0E9475000E94FD03A096E6E015
:1003E0000C94ED0EA0E2B0E0E8EFF1E00C94D10E39
:1003F00069837A838B839C832D833E834F835887C5
:10040000F9E0EF2EF12CEC0EFD1ECE010196B701A6
:100410000E94D2048E010F5E1F4FCE010596B801D7
:100420000E94D204C701B801AE01475E5F4F0E942F
:1004300075000E94FD03A096E6E00C94ED0EA0E28C
:10044000B0E0E5E2F2E00C94C50E69837A838B8319
:100450009C832D833E834F835887CE010196BE0136
:10046000675F7F4F0E94D204CE010596BE016F5E8A
:100470007F4F0E94D2049985923088F0898982301A
:10048000C8F0943019F4823051F404C0843029F457
:10049000923081F480E690E0C6C0923049F420E0CA
:1004A0009A858A89981321E02A87CE010996BBC0D4
:1004B000823049F420E09A858A89981321E02A8BBA
:1004C000CE014196B0C02D843E844F8458886D88FB
:1004D0007E888F88988CEE24FF248701AA24BB2471
:1004E000650140E050E060E070E0E0E0F0E0C10174
:1004F00081709070892BE9F0E60CF71C081D191D1E
:100500009A01AB012A0D3B1D4C1D5D1D80E090E062
:10051000A0E0B0E0E614F7040805190520F481E036
:1005200090E0A0E0B0E0BA01A901480F591F6A1F8E
:100530007B1FAA0CBB1CCC1CDD1C97FE08C081E0F5
:1005400090E0A0E0B0E0A82AB92ACA2ADB2A3196B6
:10055000E032F10549F0660C771C881C991C569412
:10056000479437942794C3CFFA85EA892B893C892D
:100570008B859C85280F391F2E5F3F4F17C0CA01FE
:1005800081709070892B61F016950795F794E79428
:1005900080E090E0A0E0B0E8E82AF92A0A2B1B2BC3
:1005A00076956795579547952F5F3F4F77FDE7CF36
:1005B0000CC0440F551F661F771F17FD4160EE0CDE
:1005C000FF1C001F111F21503040403090E05907A0
:1005D00090E0690790E4790760F32B8F3C8FDB0193
:1005E000CA018F779070A070B07080349105A1051A
:1005F000B10561F447FD0AC0E114F10401051105DC
:1006000029F0405C5F4F6F4F7F4F40781A8EFE1786
:1006100011F081E08A8F4D8F5E8F6F8F78A383E01A
:10062000898FCE0149960E94FD03A096E2E10C94C9
:10063000E10EA8E1B0E0EFE1F3E00C94D10E6983A4
:100640007A838B839C832D833E834F83588789E0F5
:10065000E82EF12CEC0EFD1ECE010196B7010E9492
:10066000D2048E010F5E1F4FCE010596B8010E9485
:10067000D2048985823040F08989823028F0C70110
:10068000B8010E944A0501C08FEF6896E6E00C941D
:10069000ED0EA8E1B0E0EFE4F3E00C94D10E698335
:1006A0007A838B839C832D833E834F83588789E095
:1006B000E82EF12CEC0EFD1ECE010196B7010E9432
:1006C000D2048E010F5E1F4FCE010596B8010E9425
:1006D000D2048985823040F08989823028F0C701B0
:1006E000B8010E944A0501C08FEF6896E6E00C94BD
:1006F000ED0EA8E1B0E0EFE7F3E00C94D10E6983D2
:100700007A838B839C832D833E834F83588789E034
:10071000E82EF12CEC0EFD1ECE010196B7010E94D1
:10072000D2048E010F5E1F4FCE010596B8010E94C4
:10073000D2048985823040F08989823028F0C7014F
:10074000B8010E944A0501C081E06896E6E00C9479
:10075000ED0EACE0B0E0EFEAF3E00C94D50E698367
:100760007A838B839C83CE010196BE016B5F7F4FA2
:100770000E94D2048D81823061F1823050F1843048
:1007800021F48E81882351F12EC02F81388537FDC9
:1007900020C06E812F3131051CF06623F9F023C093
:1007A0008EE190E0821B930B29853A854B855C8511
:1007B00004C056954795379527958A95D2F76623B5
:1007C000B1F050954095309521953F4F4F4F5F4F79
:1007D0000EC020E030E040E050E009C02FEF3FEFD6
:1007E0004FEF5FE704C020E030E040E050E8B9019F
:1007F000CA012C96E2E00C94F10EDF92EF92FF9288
:100800000F931F93FC01E480F58006811781D1804E
:100810008081823048F480E090E0A0E1B0E0E82AF6
:10082000F92A0A2B1B2BA5C0843009F49FC0823003
:1008300021F4EE24FF24870105C0E114F104010531
:10084000110519F4E0E0F0E096C0628173819FEF3A
:10085000623879070CF05BC022E83FEF261B370BAC
:100860002A3131052CF020E030E040E050E02AC091
:10087000B801A701022E04C0769567955795479554
:100880000A94D2F781E090E0A0E0B0E004C0880FC5
:10089000991FAA1FBB1F2A95D2F70197A109B10979
:1008A0008E219F21A023B1230097A105B10521F03E
:1008B00081E090E0A0E0B0E09A01AB01282B392B59
:1008C0004A2B5B2BDA01C9018F779070A070B07052
:1008D00080349105A105B10539F427FF09C0205CDA
:1008E0003F4F4F4F5F4F04C0215C3F4F4F4F5F4F13
:1008F000E0E0F0E02030A0E03A07A0E04A07A0E402
:100900005A0710F0E1E0F0E079018A0127C0603871
:10091000710564F5FB01E158FF4FD801C7018F77DE
:100920009070A070B07080349105A105B10539F4C4
:10093000E7FE0DC080E490E0A0E0B0E004C08FE3EB
:1009400090E0A0E0B0E0E80EF91E0A1F1B1F17FFA1
:1009500005C016950795F794E794319687E01695AC
:100960000795F794E7948A95D1F705C0EE24FF2404
:100970008701EFEFF0E06E2F679566276795902F60
:100980009F77D794DD24D7948E2F8695492F462BB9
:10099000582F5D29B701CA011F910F91FF90EF9069
:1009A000DF900895FC01DB01408151812281622F9B
:1009B0006F7770E0221F2227221F9381892F880FD3
:1009C000822B282F30E0991F9927991F11969C930D
:1009D000119721153105A9F54115510561057105DD
:1009E00011F482E037C082E89FEF13969C938E93B8
:1009F00012979A01AB0167E0220F331F441F551F66
:100A00006A95D1F783E08C930DC0220F331F441FEA
:100A1000551F12968D919C911397019713969C9355
:100A20008E931297203080E0380780E0480780E4FA
:100A3000580758F314962D933D934D935C93179755
:100A400008952F3F310579F4411551056105710570
:100A500019F484E08C93089564FF03C081E08C93C3
:100A600012C01C9210C02F57304013963C932E9307
:100A7000129783E08C9387E0440F551F661F771F02
:100A80008A95D1F7706414964D935D936D937C9322
:100A9000179708951F93DC01FB019C91923008F495
:100AA00047C08081823008F443C0943051F41196DD
:100AB0001C91843099F58181682F70E0611B710968
:100AC0003FC0843021F0923031F48230B9F181811D
:100AD000882389F12DC011961C9111978230F1F075
:100AE00081811817D9F412962D913C911397828128
:100AF00093818217930794F028173907BCF0149656
:100B00008D919D910D90BC91A02D248135814681C0
:100B10005781281739074A075B0718F4112341F05A
:100B20000AC082179307A407B50740F4112319F0F0
:100B300061E070E005C06FEF7FEF02C060E070E041
:100B4000CB011F910895DF93CF9300D000D00F9277
:100B5000CDB7DEB78A836B8381E089838A81282FB2
:100B600030E03D832C838C819D8181309105D1F0D3
:100B70002C813D81223031052CF48C819D810097A0
:100B800061F01FC02C813D812230310581F08C81C4
:100B90009D818330910581F014C0EAE3F0E08B8100
:100BA000808310C0E7E3F0E08B8180830BC0E4E337
:100BB000F0E08B81808306C0E1E3F0E08B818083ED
:100BC00001C0198289810F900F900F900F900F90A4
:100BD000CF91DF910895DF93CF9300D000D000D064
:100BE000CDB7DEB78A836B834C8381E089838B81A9
:100BF000883008F0E8C08A81282F30E03E832D83BA
:100C00008D819E818130910509F448C02D813E81FE
:100C1000223031052CF48D819E81009771F0D1C076
:100C20002D813E812230310509F469C08D819E817C
:100C30008330910509F494C0C4C08C818130A1F443
:100C4000AAE3B0E0EAE3F0E08081482F8B81282F0F
:100C500030E081E090E0022E02C0880F991F0A94D4
:100C6000E2F7842B8C93B0C08C818823A9F4AAE38B
:100C7000B0E0EAE3F0E08081482F8B81282F30E05C
:100C800081E090E0022E02C0880F991F0A94E2F7DB
:100C9000809584238C9398C0198296C08C81813072
:100CA000A1F4A7E3B0E0E7E3F0E08081482F8B8177
:100CB000282F30E081E090E0022E02C0880F991FBB
:100CC0000A94E2F7842B8C937FC08C818823A9F44B
:100CD000A7E3B0E0E7E3F0E08081482F8B81282F85
:100CE00030E081E090E0022E02C0880F991F0A9444
:100CF000E2F7809584238C9367C0198265C08C814C
:100D00008130A1F4A4E3B0E0E4E3F0E08081482F77
:100D10008B81282F30E081E090E0022E02C0880F06
:100D2000991F0A94E2F7842B8C934EC08C81882300
:100D3000A9F4A4E3B0E0E4E3F0E08081482F8B81E4
:100D4000282F30E081E090E0022E02C0880F991F2A
:100D50000A94E2F7809584238C9336C0198234C0BC
:100D60008C818130A1F4A1E3B0E0E1E3F0E0808187
:100D7000482F8B81282F30E081E090E0022E02C0C6
:100D8000880F991F0A94E2F7842B8C931DC08C81E5
:100D90008823A9F4A1E3B0E0E1E3F0E08081482FEB
:100DA0008B81282F30E081E090E0022E02C0880F76
:100DB000991F0A94E2F7809584238C9305C01982C9
:100DC00003C0198201C01982898126960FB6F89452
:100DD000DEBF0FBECDBFCF91DF910895DF93CF93DC
:100DE00000D000D00F92CDB7DEB78A836B8381E04D
:100DF00089838A81282F30E03D832C838C819D81DB
:100E000081309105D1F02C813D81223031052CF4C7
:100E10008C819D81009761F01FC02C813D81223023
:100E2000310581F08C819D818330910581F014C062
:100E3000EBE3F0E08B81808310C0E8E3F0E08B818E
:100E400080830BC0E5E3F0E08B81808306C0E2E3A2
:100E5000F0E08B81808301C0198289810F900F900F
:100E60000F900F900F90CF91DF910895DF93CF9364
:100E700000D000D000D0CDB7DEB78A837C836B83EF
:100E800081E089838A81282F30E03E832D838D8104
:100E90009E8181309105E1F02D813E812230310526
:100EA0002CF48D819E81009761F027C02D813E81B9
:100EB00022303105A1F08D819E8183309105B1F002
:100EC0001CC0E9E3F0E08081EB81FC81808316C0E7
:100ED000E6E3F0E08081EB81FC8180830FC0E3E3F7
:100EE000F0E08081EB81FC81808308C0E0E3F0E0EA
:100EF0008081EB81FC81808301C0198289812696E3
:100F00000FB6F894DEBF0FBECDBFCF91DF9108952D
:100F1000DF93CF9300D000D000D0CDB7DEB78A8367
:100F20006B834C8381E089838B81883008F0E8C033
:100F30008A81282F30E03E832D838D819E818130F0
:100F4000910509F448C02D813E81223031052CF4F1
:100F50008D819E81009771F0D1C02D813E8122301C
:100F6000310509F469C08D819E818330910509F4B2
:100F700094C0C4C08C818130A1F4ABE3B0E0EBE35A
:100F8000F0E08081482F8B81282F30E081E090E0D5
:100F9000022E02C0880F991F0A94E2F7842B8C93CB
:100FA000B0C08C818823A9F4ABE3B0E0EBE3F0E0C0
:100FB0008081482F8B81282F30E081E090E0022E45
:100FC00002C0880F991F0A94E2F7809584238C93BE
:100FD00098C0198296C08C818130A1F4A8E3B0E05A
:100FE000E8E3F0E08081482F8B81282F30E081E01A
:100FF00090E0022E02C0880F991F0A94E2F7842B1A
:101000008C937FC08C818823A9F4A8E3B0E0E8E347
:10101000F0E08081482F8B81282F30E081E090E044
:10102000022E02C0880F991F0A94E2F7809584234C
:101030008C9367C0198265C08C818130A1F4A5E3CF
:10104000B0E0E5E3F0E08081482F8B81282F30E08D
:1010500081E090E0022E02C0880F991F0A94E2F707
:10106000842B8C934EC08C818823A9F4A5E3B0E037
:10107000E5E3F0E08081482F8B81282F30E081E08C
:1010800090E0022E02C0880F991F0A94E2F7809523
:1010900084238C9336C0198234C08C818130A1F4B2
:1010A000A2E3B0E0E2E3F0E08081482F8B81282FBB
:1010B00030E081E090E0022E02C0880F991F0A9470
:1010C000E2F7842B8C931DC08C818823A9F4A2E3C2
:1010D000B0E0E2E3F0E08081482F8B81282F30E000
:1010E00081E090E0022E02C0880F991F0A94E2F777
:1010F000809584238C9305C0198203C0198201C096
:101100001982898126960FB6F894DEBF0FBECDBF37
:10111000CF91DF910895DF93CF93CDB7DEB72797B7
:101120000FB6F894DEBF0FBECDBF8A836B835D839D
:101130004C8381E089838B81883008F073C08A8179
:10114000282F30E03F832E834E815F81413051054F
:1011500059F18E819F818230910534F42E813F8137
:101160002115310569F05CC04E815F814230510527
:1011700079F18E819F818330910509F43DC050C083
:10118000E9E3F0E08081282F30E08B81882F90E028
:10119000A90102C0559547958A95E2F7CA01817069
:1011A000EC81FD8180833FC0E6E3F0E08081282F61
:1011B00030E08B81882F90E0A90102C055954795BA
:1011C0008A95E2F7CA018170EC81FD8180832BC092
:1011D000E3E3F0E08081282F30E08B81882F90E0DE
:1011E000A90102C0559547958A95E2F7CA01817019
:1011F000EC81FD81808317C0E0E3F0E08081282F3F
:1012000030E08B81882F90E0A90102C05595479569
:101210008A95E2F7CA018170EC81FD81808303C069
:10122000198201C01982898127960FB6F894DEBF12
:101230000FBECDBFCF91DF910895DF93CF9300D044
:101240000F92CDB7DEB78B8381E089839E012E5F3D
:101250003F4F8B81B9010E94360789838A81982F7D
:1012600090958B81692F0E94EE06898389810F906A
:101270000F900F90CF91DF910895DF93CF9300D01F
:1012800000D00F92CDB7DEB78B836C8381E089836A
:101290009E012E5F3F4F8B816C81A9010E948B08BC
:1012A00089838A811D82882311F481E08D838B815B
:1012B0006C814D810E948807898389810F900F90EE
:1012C0000F900F900F90CF91DF910895DF93CF9300
:1012D000CDB7DEB780E060E041E00E94EB0580E042
:1012E00061E041E00E94EB0580E062E041E00E94A5
:1012F000EB0580E063E041E00E94EB0580E064E004
:1013000040E00E94EB0580E065E040E00E94EB05D4
:1013100080E066E040E00E94EB0580E067E040E0AE
:101320000E94EB0580E06FEF0E94EE06CF91DF9107
:101330000895DF93CF93CDB7DEB762970FB6F894D9
:10134000DEBF0FBECDBF8FEF898B188AE1C08889C1
:10135000882F90E0FC01E459FF4F908180E0692FD5
:1013600040E00E9488071F86C0C08F85882F90E0CC
:10137000FC01E859FF4F90819E012E5E3F4F80E0B7
:10138000692FA9010E948B088A89882309F0AAC0C5
:1013900080E090E0A8E4B2E48B879C87AD87BE87AD
:1013A0006B857C858D859E8520E030E04AE753E49F
:1013B0000E941F02DC01CB018F839887A987BA871F
:1013C0006F81788589859A8520E030E040E85FE389
:1013D0000E94790388232CF481E090E09E838D8322
:1013E0003FC06F81788589859A8520E03FEF4FE780
:1013F00057E40E94190318164CF56B857C858D8582
:101400009E8520E030E040E251E40E941F02DC01B2
:10141000CB01BC01CD010E944900DC01CB019E83C0
:101420008D830FC089E190E09C838B838B819C81AD
:101430000197F1F79C838B838D819E8101979E8319
:101440008D838D819E81009769F714C06F817885A7
:1014500089859A850E944900DC01CB019E838D839A
:101460008D819E819A83898389819A810197F1F781
:101470009A8389838F85882F90E0FC01E859FF4F7C
:1014800090819E012E5E3F4F80E0692FA9010E944E
:101490008B088A89882311F58F85482F50E0888929
:1014A000282F30E0CA01880F991F880F991F820FDB
:1014B000931FFC01E059FF4F8081898B0FC08F85FE
:1014C000882F90E0FC01E859FF4F90819E012E5E2D
:1014D0003F4F80E0692FA9010E948B088A898823E9
:1014E00071F307C08F858F5F8F878F85843008F4F5
:1014F0003CCF8889882F90E0FC01E459FF4F908110
:1015000080E0692F41E00E94880788898F5F888B7F
:101510008889843008F41BCF898962960FB6F894C5
:10152000DEBF0FBECDBFCF91DF910895DF93CF9384
:101530000F92CDB7DEB7898382E061E00E94A305F8
:1015400083E060E041E00E94EB0583E061E041E080
:101550000E94EB0583E062E041E00E94EB0583E03E
:1015600060E040E00E94880783E061E040E00E9484
:10157000880782E069810E94EE0683E062E041E034
:101580000E94880783E062E040E00E9488070F9095
:10159000CF91DF910895DF93CF93CDB7DEB788E386
:1015A0000E94960A8CE00E94960A81E00E94960AA8
:1015B000CF91DF910895DF93CF930F92CDB7DEB730
:1015C000898383E060E041E00E94880783E061E076
:1015D00040E00E94880782E069810E94EE0683E075
:1015E00062E041E00E94880783E062E040E00E9400
:1015F00088070F90CF91DF910895DF93CF9300D0AC
:101600000F92CDB7DEB79B838A8319820EC0898182
:10161000282F30E08A819B81FC01E20FF31F80813B
:101620000E94DB0A89818F5F89838981282F30E0BE
:101630008A819B81FC01E20FF31F8081882339F7A7
:101640000F900F900F90CF91DF910895DF93CF937C
:1016500000D00F92CDB7DEB78A836B838A8188234F
:1016600019F48B81898306C08A81813019F48B81BA
:10167000805C8983898180680E94960A0F900F9010
:101680000F90CF91DF910895DF93CF93CDB7DEB761
:1016900027970FB6F894DEBF0FBECDBF6C837D8356
:1016A0008E839F831A828C819D81AE81BF8100973A
:1016B000A105B105D1F5809180000E94DB0A50C0E0
:1016C0008C819D81AE81BF812AE030E040E050E016
:1016D000BC01CD010E94A30EDC01CB018B838C8168
:1016E0009D81AE81BF812AE030E040E050E0BC0146
:1016F000CD010E94A30EDA01C9018C839D83AE83C4
:10170000BF838A81882F90E09C012F5F3F4F8B81A0
:10171000882F90E0FC01E058FF4F8081F901E057ED
:10172000FF4F80838A818F5F8A838C819D81AE8108
:10173000BF810097A105B10519F68A8189830DC083
:101740008981992787FD9095FC01E057FF4F8081A3
:101750000E94DB0A8981815089838981882384F7EB
:1017600027960FB6F894DEBF0FBECDBFCF91DF91A5
:101770000895EF92FF920F931F93DF93CF93CDB70E
:10178000DEB728970FB6F894DEBF0FBECDBF6D83CE
:101790007E838F83988781E090E0A0E0B0E089832A
:1017A0009A83AB83BC838D819E81AF81B88500977E
:1017B000A105B105D1F580E30E94DB0A6BC08981E8
:1017C0009A81AB81BC812AE030E040E050E0BC016E
:1017D000CD010E94780E7B018C018D819E81AF81AD
:1017E000B8852AE030E040E050E0BC01CD010E9425
:1017F000A30EDC01CB018E0D9F1DA01FB11F89839D
:101800009A83AB83BC838D819E81AF81B8852AE0AA
:1018100030E040E050E0BC01CD010E94A30EDA01AF
:10182000C9018D839E83AF83B8878D819E81AF81EF
:10183000B8850097A105B10511F623C089819A8169
:10184000AB81BC812AE030E040E050E0BC01CD013A
:101850000E94A30EDC01CB01805D0E94DB0A89811E
:101860009A81AB81BC812AE030E040E050E0BC01CD
:10187000CD010E94A30EDA01C90189839A83AB834B
:10188000BC8389819A81AB81BC8181309105A1059E
:10189000B105A1F628960FB6F894DEBF0FBECDBFF6
:1018A000CF91DF911F910F91FF90EF900895DF93FB
:1018B000CF93CDB7DEB781E00E94960ACF91DF913A
:1018C0000895DF93CF9300D00F92CDB7DEB7698331
:1018D0007A838B8389819A81692F41E00E94EB058D
:1018E0000F900F900F90CF91DF910895DF93CF93DA
:1018F00000D00F92CDB7DEB769837A838B838B815B
:10190000813039F489819A81692F41E00E948807EA
:1019100006C089819A81692F40E00E9488070F9054
:101920000F900F90CF91DF910895DF93CF9300D068
:101930000F92CDB7DEB769837A838B838B81813039
:1019400039F489819A81692F40E00E94880706C096
:1019500089819A81692F41E00E9488070F900F903A
:101960000F90CF91DF910895DF93CF9300D00F9226
:10197000CDB7DEB769837A838B8389819A81692F9A
:101980000E943D090F900F900F90CF91DF91089525
:10199000DF93CF93CDB7DEB7EB970FB6F894DEBFEA
:1019A0000FBECDBF9E01265D3F4F3BAB2AAB8DE8FE
:1019B00090E09DAB8CAB93E09EABECA9FDA90080C1
:1019C0002CA93DA92F5F3F4F3DAB2CABEAA9FBA94A
:1019D00000822AA93BA92F5F3F4F3BAB2AAB3EA910
:1019E00031503EAB8EA9882341F76AA57BA58CA513
:1019F0000E94610CFE01BD96F8AFEFAB2AE830E023
:101A00003AAF29AF33E03BAFE9ADFAAD008029AD85
:101A10003AAD2F5F3F4F3AAF29AFEFA9F8AD008243
:101A20002FA938AD2F5F3F4F38AF2FAB3BAD3150B3
:101A30003BAF8BAD882341F76DA57EA58FA50E9496
:101A4000610C1A824BC06AA57BA58CA50E94760CFE
:101A50000E949909898789858F3FD1F389858A32C8
:101A600019F189858B3201F189858D32E9F08985FB
:101A70008F32D1F089858D33B9F089858336A1F015
:101A800089850E94DB0A8A81282F30E0CE010A96E0
:101A9000FC01E20FF31F8985808388858F5F88872B
:101AA0008A818F5F8A831AC089858A3249F0898545
:101AB0008B3231F489858D3219F489858F3259F052
:101AC00089850E94DB0A89858E836AA57BA58CA502
:101AD0000E94950C07C00E94570C04C08A81813176
:101AE00008F4B1CF19823DC06DA57EA58FA50E94D7
:101AF000760C0E949909898789858F3FD1F3898562
:101B00008A3201F189858B32E9F089858D32D1F0F5
:101B100089858F32B9F089858D33A1F08985833627
:101B200089F089850E94DB0A8981282F30E0CE0167
:101B30004A96FC01E20FF31F898580838F818F5FB6
:101B40008F830CC089858D3349F489850E94DB0A17
:101B50006DA57EA58FA50E94950C07C089818F5F1A
:101B600089838981813108F4BFCFCE010A960E9412
:101B7000FC0E8D83CE014A960E94FC0E8C8381E080
:101B800060E00E94260B8E81E82FF0E0F9ABE8AB15
:101B900028A939A92B323105B9F088A999A98C3225
:101BA000910534F4E8A9F9A9EA32F105D9F061C048
:101BB00028A939A92D32310529F188A999A98F328F
:101BC000910509F446C055C09C818D81890F8B8396
:101BD0008B81882F90E0A0E0B0E0BC01CD010E9495
:101BE000440B49C09D818C81989F802D11248B834B
:101BF0008B81882F90E0A0E0B0E0BC01CD010E9475
:101C0000440B39C09D818C81E92FE81B8E2F8B837B
:101C10009D818C81891750F48B81882F90E0A0E002
:101C2000B0E0BC01CD010E94440B25C09C818D8198
:101C3000F92FF81B8F2F8B838DE20E94DB0A8B819B
:101C4000882F90E0A0E0B0E0BC01CD010E94440BE1
:101C500012C08D819C81692F0E94970E8B838B818E
:101C6000882F90E0A0E0B0E0BC01CD010E94440BC1
:101C700002C00E94570C0E949909898789858F3F6D
:101C8000D1F38985833611F40E94570C80E061E01E
:101C90000E94260BEB960FB6F894DEBF0FBECDBFA9
:101CA000CF91DF910895DF93CF9300D0CDB7DEB70A
:101CB00089836A838981282F30E08A81882F90E088
:101CC000AC01249FC001259F900D349F900D1124DD
:101CD0000F900F90CF91DF910895DF93CF93CDB701
:101CE000DEB70E9466090E94CB0A0E94C80CFDCF95
:101CF000629FD001739FF001829FE00DF11D649FF0
:101D0000E00DF11D929FF00D839FF00D749FF00D7B
:101D1000659FF00D9927729FB00DE11DF91F639F1C
:101D2000B00DE11DF91FBD01CF0111240895991BCC
:101D300079E004C0991F961708F0961B881F7A95C2
:101D4000C9F780950895A1E21A2EAA1BBB1BFD01BD
:101D50000DC0AA1FBB1FEE1FFF1FA217B307E4078A
:101D6000F50720F0A21BB30BE40BF50B661F771FE2
:101D7000881F991F1A9469F76095709580959095C2
:101D80009B01AC01BD01CF0108952F923F924F926C
:101D90005F926F927F928F929F92AF92BF92CF92FB
:101DA000DF92EF92FF920F931F93CF93DF93CDB704
:101DB000DEB7CA1BDB0B0FB6F894DEBF0FBECDBF7C
:101DC00009942A88398848885F846E847D848C844D
:101DD0009B84AA84B984C884DF80EE80FD800C8156
:101DE0001B81AA81B981CE0FD11D0FB6F894DEBF39
:101DF0000FBECDBFED010895FC0188279927E89417
:101E000021912032E9F3293010F02E30C8F32B3223
:101E100041F02D3239F4689404C00E941A0F820FE9
:101E2000911D219120532A30C0F31EF49095819585
:101E30009F4F08957AE0979F902D879F802D910D59
:081E400011240895F894FFCF6E
:101E4800000000000000000004050607000102036E
:101E58003738392F3435362A3132332D63303D2B1C
:101E68003031323334353637383901010101000158
:00000001FF
