:100000000C942A000C943F000C943F000C943F0089
:100010000C943F000C943F000C943F000C943F0064
:100020000C943F000C943F000C943F000C943F0054
:100030000C943F000C943F000C943F000C943F0044
:100040000C943F000C943F000C943F000C943F0034
:100050000C943F0011241FBECFE5D4E0DEBFCDBF1E
:1000600010E0A0E6B0E0E0E3FAE302C005900D92F4
:10007000A039B107D9F70E94C5090C94161D0C943C
:100080000000EF92FF920F931F937B018C0120E001
:1000900030E040E05FE40E94410388238CF0C80117
:1000A000B70120E030E040E05FE40E94B9010E9427
:1000B000A1039B01AC01205030404040504806C095
:1000C000C801B7010E94A1039B01AC01B901CA019B
:1000D0001F910F91FF90EF900895A0E0B0E0E3E74B
:1000E000F0E00C94DF1CDC012B01FA019C919230B2
:1000F00008F439C1EB018881823008F433C19430AF
:1001000069F4843009F02FC111969C91119789816F
:10011000981709F428C1A0E6B0E025C1843009F49D
:1001200021C18230A9F4923009F01DC19A01AD01BC
:1001300088E0EA010990AE01E90109929E0181502F
:10014000C1F7E201898111969C918923818308C1BD
:10015000923009F407C112962D903C901397EB0151
:100160008A819B811496AD90BD90CD90DC901797BD
:10017000EC80FD800E811F819101281B390BB90194
:1001800037FF04C066277727621B730B6032710547
:100190000CF061C0121613066CF537014801062EEB
:1001A00004C096948794779467940A94D2F721E0D8
:1001B00030E040E050E004C0220F331F441F551FC1
:1001C0006A95D2F721503040404050402E213F21C7
:1001D00040235123211531054105510521F021E02E
:1001E00030E040E050E079018A01E628F72808294C
:1001F00019293CC0232BD1F1260E371E35014601AB
:10020000062E04C096948794779467940A94D2F744
:1002100021E030E040E050E004C0220F331F441FD3
:10022000551F6A95D2F721503040404050402A2156
:100230003B214C215D21211531054105510521F05E
:1002400021E030E040E050E059016A01A628B728DB
:10025000C828D9280BC0821593052CF01C01AA24AC
:10026000BB24650103C0EE24FF24870111969C91F5
:10027000D20111968C91981709F445C0992339F051
:10028000A80197012A193B094C095D0906C0A6017E
:1002900095012E193F09400B510B57FD08C01182E3
:1002A0003382228224833583468357831DC081E0B5
:1002B00081833382228288279927DC01821B930B5A
:1002C000A40BB50B84839583A683B7830DC0220F3F
:1002D000331F441F551F24833583468357838281F0
:1002E000938101979383828324813581468157814D
:1002F000DA01C9010197A109B1098F5F9F4FAF4F83
:10030000BF4328F30BC0918333822282EA0CFB1C8B
:100310000C1D1D1DE482F5820683178383E0808314
:10032000248135814681578157FF1AC0C901AA2708
:1003300097FDA095BA2F81709070A070B0705695FF
:10034000479537952795822B932BA42BB52B848328
:100350009583A683B7838281938101969383828359
:10036000DF0101C0D201CD01CDB7DEB7E2E10C94CF
:10037000FB1CA0E2B0E0EFEBF1E00C94EB1C698316
:100380007A838B839C832D833E834F835887E9E058
:10039000EE2EF12CEC0EFD1ECE010196B7010E944F
:1003A000CA048E010F5E1F4FCE010596B8010E9450
:1003B000CA048A8991E089278A8BC701B801AE01F6
:1003C000475E5F4F0E946D000E94F503A096E6E035
:1003D0000C94071DA0E2B0E0E0EFF1E00C94EB1C00
:1003E00069837A838B839C832D833E834F835887D5
:1003F000F9E0EF2EF12CEC0EFD1ECE010196B701B7
:100400000E94CA048E010F5E1F4FCE010596B801EF
:100410000E94CA04C701B801AE01475E5F4F0E9447
:100420006D000E94F503A096E6E00C94071DA0E283
:10043000B0E0EDE1F2E00C94DF1C69837A838B83FA
:100440009C832D833E834F835887CE010196BE0146
:10045000675F7F4F0E94CA04CE010596BE016F5EA2
:100460007F4F0E94CA049985923088F08989823032
:10047000C8F0943019F4823051F404C0843029F467
:10048000923081F480E690E0C6C0923049F420E0DA
:100490009A858A89981321E02A87CE010996BBC0E4
:1004A000823049F420E09A858A89981321E02A8BCA
:1004B000CE014196B0C02D843E844F8458886D880B
:1004C0007E888F88988CEE24FF248701AA24BB2481
:1004D000650140E050E060E070E0E0E0F0E0C10184
:1004E00081709070892BE9F0E60CF71C081D191D2E
:1004F0009A01AB012A0D3B1D4C1D5D1D80E090E073
:10050000A0E0B0E0E614F7040805190520F481E046
:1005100090E0A0E0B0E0BA01A901480F591F6A1F9E
:100520007B1FAA0CBB1CCC1CDD1C97FE08C081E005
:1005300090E0A0E0B0E0A82AB92ACA2ADB2A3196C6
:10054000E032F10549F0660C771C881C991C569422
:10055000479437942794C3CFFA85EA892B893C893D
:100560008B859C85280F391F2E5F3F4F17C0CA010E
:1005700081709070892B61F016950795F794E79438
:1005800080E090E0A0E0B0E8E82AF92A0A2B1B2BD3
:1005900076956795579547952F5F3F4F77FDE7CF46
:1005A0000CC0440F551F661F771F17FD4160EE0CEE
:1005B000FF1C001F111F21503040403090E05907B0
:1005C00090E0690790E4790760F32B8F3C8FDB01A3
:1005D000CA018F779070A070B07080349105A1052A
:1005E000B10561F447FD0AC0E114F10401051105EC
:1005F00029F0405C5F4F6F4F7F4F40781A8EFE1797
:1006000011F081E08A8F4D8F5E8F6F8F78A383E02A
:10061000898FCE0149960E94F503A096E2E10C94E1
:10062000FB1CA8E1B0E0E7E1F3E00C94EB1C69836C
:100630007A838B839C832D833E834F83588789E005
:10064000E82EF12CEC0EFD1ECE010196B7010E94A2
:10065000CA048E010F5E1F4FCE010596B8010E949D
:10066000CA048985823040F08989823028F0C70128
:10067000B8010E94420501C08FEF6896E6E00C9435
:10068000071DA8E1B0E0E7E4F3E00C94EB1C6983FC
:100690007A838B839C832D833E834F83588789E0A5
:1006A000E82EF12CEC0EFD1ECE010196B7010E9442
:1006B000CA048E010F5E1F4FCE010596B8010E943D
:1006C000CA048985823040F08989823028F0C701C8
:1006D000B8010E94420501C08FEF6896E6E00C94D5
:1006E000071DA8E1B0E0E7E7F3E00C94EB1C698399
:1006F0007A838B839C832D833E834F83588789E045
:10070000E82EF12CEC0EFD1ECE010196B7010E94E1
:10071000CA048E010F5E1F4FCE010596B8010E94DC
:10072000CA048985823040F08989823028F0C70167
:10073000B8010E94420501C081E06896E6E00C9491
:10074000071DACE0B0E0E7EAF3E00C94EF1C69832E
:100750007A838B839C83CE010196BE016B5F7F4FB2
:100760000E94CA048D81823061F1823050F1843060
:1007700021F48E81882351F12EC02F81388537FDD9
:1007800020C06E812F3131051CF06623F9F023C0A3
:100790008EE190E0821B930B29853A854B855C8521
:1007A00004C056954795379527958A95D2F76623C5
:1007B000B1F050954095309521953F4F4F4F5F4F89
:1007C0000EC020E030E040E050E009C02FEF3FEFE6
:1007D0004FEF5FE704C020E030E040E050E8B901AF
:1007E000CA012C96E2E00C940B1DDF92EF92FF926F
:1007F0000F931F93FC01E480F58006811781D1805F
:100800008081823048F480E090E0A0E1B0E0E82A06
:10081000F92A0A2B1B2BA5C0843009F49FC0823013
:1008200021F4EE24FF24870105C0E114F104010541
:10083000110519F4E0E0F0E096C0628173819FEF4A
:10084000623879070CF05BC022E83FEF261B370BBC
:100850002A3131052CF020E030E040E050E02AC0A1
:10086000B801A701022E04C0769567955795479564
:100870000A94D2F781E090E0A0E0B0E004C0880FD5
:10088000991FAA1FBB1F2A95D2F70197A109B10989
:100890008E219F21A023B1230097A105B10521F04E
:1008A00081E090E0A0E0B0E09A01AB01282B392B69
:1008B0004A2B5B2BDA01C9018F779070A070B07062
:1008C00080349105A105B10539F427FF09C0205CEA
:1008D0003F4F4F4F5F4F04C0215C3F4F4F4F5F4F23
:1008E000E0E0F0E02030A0E03A07A0E04A07A0E412
:1008F0005A0710F0E1E0F0E079018A0127C0603882
:10090000710564F5FB01E158FF4FD801C7018F77EE
:100910009070A070B07080349105A105B10539F4D4
:10092000E7FE0DC080E490E0A0E0B0E004C08FE3FB
:1009300090E0A0E0B0E0E80EF91E0A1F1B1F17FFB1
:1009400005C016950795F794E794319687E01695BC
:100950000795F794E7948A95D1F705C0EE24FF2414
:100960008701EFEFF0E06E2F679566276795902F70
:100970009F77D794DD24D7948E2F8695492F462BC9
:10098000582F5D29B701CA011F910F91FF90EF9079
:10099000DF900895FC01DB01408151812281622FAB
:1009A0006F7770E0221F2227221F9381892F880FE3
:1009B000822B282F30E0991F9927991F11969C931D
:1009C000119721153105A9F54115510561057105ED
:1009D00011F482E037C082E89FEF13969C938E93C8
:1009E00012979A01AB0167E0220F331F441F551F76
:1009F0006A95D1F783E08C930DC0220F331F441FFB
:100A0000551F12968D919C911397019713969C9365
:100A10008E931297203080E0380780E0480780E40A
:100A2000580758F314962D933D934D935C93179765
:100A300008952F3F310579F4411551056105710580
:100A400019F484E08C93089564FF03C081E08C93D3
:100A500012C01C9210C02F57304013963C932E9317
:100A6000129783E08C9387E0440F551F661F771F12
:100A70008A95D1F7706414964D935D936D937C9332
:100A8000179708951F93DC01FB019C91923008F4A5
:100A900047C08081823008F443C0943051F41196ED
:100AA0001C91843099F58181682F70E0611B710978
:100AB0003FC0843021F0923031F48230B9F181812D
:100AC000882389F12DC011961C9111978230F1F085
:100AD00081811817D9F412962D913C911397828138
:100AE00093818217930794F028173907BCF0149666
:100AF0008D919D910D90BC91A02D248135814681D1
:100B00005781281739074A075B0718F4112341F06A
:100B10000AC082179307A407B50740F4112319F000
:100B200061E070E005C06FEF7FEF02C060E070E051
:100B3000CB011F910895DF93CF9300D000D00F9287
:100B4000CDB7DEB78A836B8381E089838A81282FC2
:100B500030E03D832C838C819D8181309105D1F0E3
:100B60002C813D81223031052CF48C819D810097B0
:100B700061F01FC02C813D812230310581F08C81D4
:100B80009D818330910581F014C0EAE3F0E08B8110
:100B9000808310C0E7E3F0E08B8180830BC0E4E347
:100BA000F0E08B81808306C0E1E3F0E08B818083FD
:100BB00001C0198289810F900F900F900F900F90B4
:100BC000CF91DF910895DF93CF9300D000D000D074
:100BD000CDB7DEB78A836B834C8381E089838B81B9
:100BE000883008F0E8C08A81282F30E03E832D83CA
:100BF0008D819E818130910509F448C02D813E810F
:100C0000223031052CF48D819E81009771F0D1C086
:100C10002D813E812230310509F469C08D819E818C
:100C20008330910509F494C0C4C08C818130A1F453
:100C3000AAE3B0E0EAE3F0E08081482F8B81282F1F
:100C400030E081E090E0022E02C0880F991F0A94E4
:100C5000E2F7842B8C93B0C08C818823A9F4AAE39B
:100C6000B0E0EAE3F0E08081482F8B81282F30E06C
:100C700081E090E0022E02C0880F991F0A94E2F7EB
:100C8000809584238C9398C0198296C08C81813082
:100C9000A1F4A7E3B0E0E7E3F0E08081482F8B8187
:100CA000282F30E081E090E0022E02C0880F991FCB
:100CB0000A94E2F7842B8C937FC08C818823A9F45B
:100CC000A7E3B0E0E7E3F0E08081482F8B81282F95
:100CD00030E081E090E0022E02C0880F991F0A9454
:100CE000E2F7809584238C9367C0198265C08C815C
:100CF0008130A1F4A4E3B0E0E4E3F0E08081482F88
:100D00008B81282F30E081E090E0022E02C0880F16
:100D1000991F0A94E2F7842B8C934EC08C81882310
:100D2000A9F4A4E3B0E0E4E3F0E08081482F8B81F4
:100D3000282F30E081E090E0022E02C0880F991F3A
:100D40000A94E2F7809584238C9336C0198234C0CC
:100D50008C818130A1F4A1E3B0E0E1E3F0E0808197
:100D6000482F8B81282F30E081E090E0022E02C0D6
:100D7000880F991F0A94E2F7842B8C931DC08C81F5
:100D80008823A9F4A1E3B0E0E1E3F0E08081482FFB
:100D90008B81282F30E081E090E0022E02C0880F86
:100DA000991F0A94E2F7809584238C9305C01982D9
:100DB00003C0198201C01982898126960FB6F89462
:100DC000DEBF0FBECDBFCF91DF910895DF93CF93EC
:100DD00000D000D00F92CDB7DEB78A836B8381E05D
:100DE00089838A81282F30E03D832C838C819D81EB
:100DF00081309105D1F02C813D81223031052CF4D8
:100E00008C819D81009761F01FC02C813D81223033
:100E1000310581F08C819D818330910581F014C072
:100E2000EBE3F0E08B81808310C0E8E3F0E08B819E
:100E300080830BC0E5E3F0E08B81808306C0E2E3B2
:100E4000F0E08B81808301C0198289810F900F901F
:100E50000F900F900F90CF91DF910895DF93CF9374
:100E600000D000D000D0CDB7DEB78A837C836B83FF
:100E700081E089838A81282F30E03E832D838D8114
:100E80009E8181309105E1F02D813E812230310536
:100E90002CF48D819E81009761F027C02D813E81C9
:100EA00022303105A1F08D819E8183309105B1F012
:100EB0001CC0E9E3F0E08081EB81FC81808316C0F7
:100EC000E6E3F0E08081EB81FC8180830FC0E3E307
:100ED000F0E08081EB81FC81808308C0E0E3F0E0FA
:100EE0008081EB81FC81808301C0198289812696F3
:100EF0000FB6F894DEBF0FBECDBFCF91DF9108953E
:100F0000DF93CF9300D000D000D0CDB7DEB78A8377
:100F10006B834C8381E089838B81883008F0E8C043
:100F20008A81282F30E03E832D838D819E81813000
:100F3000910509F448C02D813E81223031052CF401
:100F40008D819E81009771F0D1C02D813E8122302C
:100F5000310509F469C08D819E818330910509F4C2
:100F600094C0C4C08C818130A1F4ABE3B0E0EBE36A
:100F7000F0E08081482F8B81282F30E081E090E0E5
:100F8000022E02C0880F991F0A94E2F7842B8C93DB
:100F9000B0C08C818823A9F4ABE3B0E0EBE3F0E0D0
:100FA0008081482F8B81282F30E081E090E0022E55
:100FB00002C0880F991F0A94E2F7809584238C93CE
:100FC00098C0198296C08C818130A1F4A8E3B0E06A
:100FD000E8E3F0E08081482F8B81282F30E081E02A
:100FE00090E0022E02C0880F991F0A94E2F7842B2A
:100FF0008C937FC08C818823A9F4A8E3B0E0E8E358
:10100000F0E08081482F8B81282F30E081E090E054
:10101000022E02C0880F991F0A94E2F7809584235C
:101020008C9367C0198265C08C818130A1F4A5E3DF
:10103000B0E0E5E3F0E08081482F8B81282F30E09D
:1010400081E090E0022E02C0880F991F0A94E2F717
:10105000842B8C934EC08C818823A9F4A5E3B0E047
:10106000E5E3F0E08081482F8B81282F30E081E09C
:1010700090E0022E02C0880F991F0A94E2F7809533
:1010800084238C9336C0198234C08C818130A1F4C2
:10109000A2E3B0E0E2E3F0E08081482F8B81282FCB
:1010A00030E081E090E0022E02C0880F991F0A9480
:1010B000E2F7842B8C931DC08C818823A9F4A2E3D2
:1010C000B0E0E2E3F0E08081482F8B81282F30E010
:1010D00081E090E0022E02C0880F991F0A94E2F787
:1010E000809584238C9305C0198203C0198201C0A6
:1010F0001982898126960FB6F894DEBF0FBECDBF48
:10110000CF91DF910895DF93CF93CDB7DEB72797C7
:101110000FB6F894DEBF0FBECDBF8A836B835D83AD
:101120004C8381E089838B81883008F073C08A8189
:10113000282F30E03F832E834E815F81413051055F
:1011400059F18E819F818230910534F42E813F8147
:101150002115310569F05CC04E815F814230510537
:1011600079F18E819F818330910509F43DC050C093
:10117000E9E3F0E08081282F30E08B81882F90E038
:10118000A90102C0559547958A95E2F7CA01817079
:10119000EC81FD8180833FC0E6E3F0E08081282F71
:1011A00030E08B81882F90E0A90102C055954795CA
:1011B0008A95E2F7CA018170EC81FD8180832BC0A2
:1011C000E3E3F0E08081282F30E08B81882F90E0EE
:1011D000A90102C0559547958A95E2F7CA01817029
:1011E000EC81FD81808317C0E0E3F0E08081282F4F
:1011F00030E08B81882F90E0A90102C0559547957A
:101200008A95E2F7CA018170EC81FD81808303C079
:10121000198201C01982898127960FB6F894DEBF22
:101220000FBECDBFCF91DF910895DF93CF9300D054
:101230000F92CDB7DEB78B8381E089839E012E5F4D
:101240003F4F8B81B9010E942E0789838A81982F95
:1012500090958B81692F0E94E606898389810F9082
:101260000F900F90CF91DF910895DF93CF9300D02F
:1012700000D00F92CDB7DEB78B836C8381E089837A
:101280009E012E5F3F4F8B816C81A9010E948308D4
:1012900089838A811D82882311F481E08D838B816B
:1012A0006C814D810E948007898389810F900F9006
:1012B0000F900F900F90CF91DF910895DF93CF9310
:1012C00000D00F92CDB7DEB769837A838B83898193
:1012D0009A81692F41E00E94E3050F900F900F90D3
:1012E000CF91DF910895DF93CF9300D00F92CDB7C8
:1012F000DEB769837A838B838B81813039F489816E
:101300009A81692F41E00E94800706C089819A81F5
:10131000692F40E00E9480070F900F900F90CF91AF
:10132000DF910895DF93CF9300D00F92CDB7DEB752
:1013300069837A838B838B81813039F489819A81A7
:10134000692F40E00E94800706C089819A81692F39
:1013500041E00E9480070F900F900F90CF91DF9196
:101360000895DF93CF9300D00F92CDB7DEB7698396
:101370007A838B8389819A81692F0E9435090F9026
:101380000F900F90CF91DF9108950F931F93DF93EC
:10139000CF93CDB7DEB7C058D1400FB6F894DEBFBB
:1013A0000FBECDBFCE01875E9E4FC05CDE4F9983DE
:1013B0008883C054D1408CE890E0CE5BDE4F9983A7
:1013C0008883C254D14093E0CC5BDE4F9883C454F1
:1013D000D140CE5BDE4FE881F981C254D14000801C
:1013E000CE5BDE4F88819981C254D1400196CE5B9D
:1013F000DE4F99838883C254D140C05CDE4FE881C0
:10140000F981C054D1400082C05CDE4F888199814F
:10141000C054D1400196C05CDE4F99838883C0548C
:10142000D140CC5BDE4F9881C454D1409150CC5B0D
:10143000DE4F9883C454D140CC5BDE4FE881C45466
:10144000D140EE2331F6CE01845E9E4FCB5BDE4F62
:1014500099838883C554D14089E890E0C95BDE4F09
:1014600099838883C754D14093E0C75BDE4F98834C
:10147000C954D140C95BDE4FE881F981C754D140DE
:101480000080C95BDE4F88819981C754D1400196A5
:10149000C95BDE4F99838883C754D140CB5BDE4F55
:1014A000E881F981C554D1400082CB5BDE4F888151
:1014B0009981C554D1400196CB5BDE4F99838883D7
:1014C000C554D140C75BDE4F9881C954D14091507B
:1014D000C75BDE4F9883C954D140C75BDE4FE881BC
:1014E000C954D140EE2331F6CE01815E9E4FC65BDA
:1014F000DE4F99838883CA54D14086E890E0C45B6C
:10150000DE4F99838883CC54D14093E0C25BDE4F99
:101510009883CE54D140C45BDE4FE881F981CC542E
:10152000D1400080C45BDE4F88819981CC54D1408A
:101530000196C45BDE4F99838883CC54D140C65B4F
:10154000DE4FE881F981CA54D1400082C65BDE4F8C
:1015500088819981CA54D1400196C65BDE4F998338
:101560008883CA54D140C25BDE4F9881CE54D140AB
:101570009150C25BDE4F9883CE54D140C25BDE4FA8
:10158000E881CE54D140EE2331F6CE018E5D9E4FE0
:10159000C15BDE4F99838883CF54D14083E890E0CC
:1015A000CF5ADE4F99838883C155D14093E0CD5AFD
:1015B000DE4F9883C355D140CF5ADE4FE881F98181
:1015C000C155D1400080CF5ADE4F88819981C155E5
:1015D000D1400196CF5ADE4F99838883C155D140BF
:1015E000C15BDE4FE881F981CF54D1400082C15BFD
:1015F000DE4F88819981CF54D1400196C15BDE4F87
:1016000099838883CF54D140CD5ADE4F9881C355FA
:10161000D1409150CD5ADE4F9883C355D140CD5A19
:10162000DE4FE881C355D140EE2331F6CE018B5D0C
:101630009E4FCC5ADE4F99838883C455D14080E8B1
:1016400090E0CA5ADE4F99838883C655D14093E013
:10165000C85ADE4F9883C855D140CA5ADE4FE88138
:10166000F981C655D1400080CA5ADE4F88819981E0
:10167000C655D1400196CA5ADE4F99838883C65514
:10168000D140CC5ADE4FE881F981C455D140008267
:10169000CC5ADE4F88819981C455D1400196CC5AED
:1016A000DE4F99838883C455D140C85ADE4F988154
:1016B000C855D1409150C85ADE4F9883C855D14083
:1016C000C85ADE4FE881C855D140EE2331F6CE012D
:1016D000885D9E4FC75ADE4F99838883C955D14094
:1016E0008DE790E0C55ADE4F99838883CB55D14072
:1016F00093E0C35ADE4F9883CD55D140C55ADE4F93
:10170000E881F981CB55D1400080C55ADE4F8881F0
:101710009981CB55D1400196C55ADE4F9983888374
:10172000CB55D140C75ADE4FE881F981C955D14028
:101730000082C75ADE4F88819981C955D1400196F0
:10174000C75ADE4F99838883C955D140C35ADE4FAB
:101750009881CD55D1409150C35ADE4F9883CD55D5
:10176000D140C35ADE4FE881CD55D140EE2331F64A
:10177000FE01E85DFE4F6081718182810E945E09F9
:10178000CE01855D9E4FC25ADE4F99838883CE5528
:10179000D1408AE790E0C05ADE4F99838883C056D3
:1017A000D14093E0CE59DE4F9883C256D140C05A03
:1017B000DE4FE881F981C056D1400080C05ADE4F2B
:1017C00088819981C056D1400196C05ADE4F9983D5
:1017D0008883C056D140C25ADE4FE881F981CE5588
:1017E000D1400082C25ADE4F88819981CE55D140C6
:1017F0000196C25ADE4F99838883CE55D140CE5987
:10180000DE4F9881C256D1409150CE59DE4F988319
:10181000C256D140CE59DE4FE881C256D140EE23A8
:1018200031F6FE01E55DFE4F6081718182810E948B
:101830005E09CE01825D9E4FCD59DE4F998388832C
:10184000C356D14087E790E0CB59DE4F9983888318
:10185000C556D14093E0C959DE4F9883C756D14051
:10186000CB59DE4FE881F981C556D1400080CB5974
:10187000DE4F88819981C556D1400196CB59DE4F04
:1018800099838883C556D140CD59DE4FE881F981CF
:10189000C356D1400082CD59DE4F88819981C3560D
:1018A000D1400196CD59DE4F99838883C356D140EC
:1018B000C959DE4F9881C756D1409150C959DE4F62
:1018C0009883C756D140C959DE4FE881C756D140E9
:1018D000EE2331F6FE01E25DFE4F6081718182816F
:1018E0000E945E09CE018F5C9E4FC859DE4F9983DE
:1018F0008883C856D14084E790E0C659DE4F99836B
:101900008883CA56D14093E0C459DE4F9883CC56A1
:10191000D140C659DE4FE881F981CA56D1400080D6
:10192000C659DE4F88819981CA56D1400196C65961
:10193000DE4F99838883CA56D140C859DE4FE8816B
:10194000F981C856D1400082C859DE4F88819981FB
:10195000C856D1400196C859DE4F99838883C8562E
:10196000D140C459DE4F9881CC56D1409150C459D2
:10197000DE4F9883CC56D140C459DE4FE881CC5617
:10198000D140EE2331F6FE01EF5CFE4F60817181A4
:1019900082810E945E09CE018C5C9E4FC359DE4F4E
:1019A00099838883CD56D14081E790E0C159DE4FBD
:1019B00099838883CF56D14093E0CF58DE4F9883E8
:1019C000C157D140C159DE4FE881F981CF56D1408E
:1019D0000080C159DE4F88819981CF56D140019650
:1019E000C159DE4F99838883CF56D140C359DE4F0A
:1019F000E881F981CD56D1400082C359DE4F8881FC
:101A00009981CD56D1400196C359DE4F9983888381
:101A1000CD56D140CF58DE4F9881C157D14091501B
:101A2000CF58DE4F9883C157D140CF58DE4FE88161
:101A3000C157D140EE2331F6FE01EC5CFE4F6081D0
:101A4000718182810E945E09CE01895C9E4FCE58D1
:101A5000DE4F99838883C257D1408EE690E0CC5800
:101A6000DE4F99838883C457D14093E0CA58DE4F34
:101A70009883C657D140CC58DE4FE881F981C457CE
:101A8000D1400080CC58DE4F88819981C457D14025
:101A90000196CC58DE4F99838883C457D140CE58E5
:101AA000DE4FE881F981C257D1400082CE58DE4F27
:101AB00088819981C257D1400196CE58DE4F9983D3
:101AC0008883C257D140CA58DE4F9881C657D1404B
:101AD0009150CA58DE4F9883C657D140CA58DE4F3E
:101AE000E881C657D140EE2331F6FE01E95CFE4F96
:101AF0006081718182810E945E09CE01865C9E4F69
:101B0000C958DE4F99838883C757D1408BE690E050
:101B1000C758DE4F99838883C957D14093E0C55891
:101B2000DE4F9883CB57D140C758DE4FE881F9810B
:101B3000C957D1400080C758DE4F88819981C95765
:101B4000D1400196C758DE4F99838883C957D14049
:101B5000C958DE4FE881F981C757D1400082C95882
:101B6000DE4F88819981C757D1400196C958DE4F11
:101B700099838883C757D140C558DE4F9881CB578A
:101B8000D1409150C558DE4F9883CB57D140C558AE
:101B9000DE4FE881CB57D140EE2331F6FE01E65C03
:101BA000FE4F6081718182810E945E09CE01835C5B
:101BB0009E4FC458DE4F99838883CC57D14088E626
:101BC00090E0C258DE4F99838883CE57D14093E08E
:101BD000C058DE4F9883C058D140C258DE4FE881CC
:101BE000F981CE57D1400080C258DE4F888199815B
:101BF000CE57D1400196C258DE4F99838883CE5785
:101C0000D140C458DE4FE881F981CC57D1400082E1
:101C1000C458DE4F88819981CC57D1400196C45871
:101C2000DE4F99838883CC57D140C058DE4F9881CE
:101C3000C058D1409150C058DE4F9883C058D14011
:101C4000C058DE4FE881C058D140EE2331F6FE0186
:101C5000E35CFE4F6081718182810E945E09FE011A
:101C6000E75EFE4F6081718182810E949C1CFE01B3
:101C7000E45EFE4F6081718182810E949C1CFE01A6
:101C8000E15EFE4F6081718182810E949C1CFE0199
:101C9000EE5DFE4F6081718182810E949C1CFE017D
:101CA000EB5DFE4F6081718182810E949C1CFE0170
:101CB000EB5DFE4F6081718182810E94C41C88238C
:101CC00011F00C94FC1A0C94EE1AFE01E75EFE4F24
:101CD0006081718182810E94C41C882309F005C142
:101CE000FE01E85DFE4F6081718182810E9473096F
:101CF000FE01E55DFE4F6081718182810E94730962
:101D0000FE01E25DFE4F6081718182810E94730954
:101D1000FE01EF5CFE4F6081718182810E94730938
:101D2000FE01EC5CFE4F6081718182810E9473092B
:101D3000FE01EB5EFE4F80E090E6AAEEB6E4808303
:101D40009183A283B3838E010F5E1E4FFE01EB5E73
:101D5000FE4F608171818281938120E030E04AE70B
:101D600053E40E941702DC01CB01F80180839183C8
:101D7000A283B383FE01EF5EFE4F60817181828199
:101D8000938120E030E040E85FE30E947103882304
:101D900044F4FE01E15FFE4F81E090E09183808397
:101DA00064C0FE01EF5EFE4F60817181828193818C
:101DB00020E03FEF4FE757E40E94110318160CF0A4
:101DC00043C0FE01EB5EFE4F608171818281938191
:101DD00020E030E040E251E40E941702DC01CB0138
:101DE0008E01015F1E4FBC01CD010E944100DC014C
:101DF000CB01F801918380831FC0FE01E35FFE4F9A
:101E000089E190E091838083FE01E35FFE4F808152
:101E100091810197F1F7FE01E35FFE4F918380838B
:101E2000DE01A15FBE4FFE01E15FFE4F8081918127
:101E3000019711969C938E93FE01E15FFE4F808186
:101E400091810097D1F627C08E01015F1E4FFE01E0
:101E5000EF5EFE4F60817181828193810E9441001B
:101E6000DC01CB01F80191838083DE01A55FBE4FC9
:101E7000FE01E15FFE4F808191818D939C93FE0175
:101E8000E55FFE4F808191810197F1F7FE01E55FEB
:101E9000FE4F91838083FE01E85DFE4F608171817A
:101EA00082810E949209FE01E55DFE4F6081718191
:101EB00082810E949209FE01E25DFE4F6081718184
:101EC00082810E949209FE01EF5CFE4F6081718168
:101ED00082810E949209FE01EC5CFE4F608171815B
:101EE00082810E9492090C94EE1AFE01E45EFE4F7C
:101EF0006081718182810E94C41C882309F050C7CF
:101F0000FE01E85DFE4F6081718182810E9473094C
:101F1000FE01E95FFE4F80E090E8ABE3B5E480832B
:101F20009183A283B3838E010D5F1E4FFE01E95F93
:101F3000FE4F608171818281938120E030E04AE729
:101F400053E40E941702DC01CB01F80180839183E6
:101F5000A283B383FE01ED5FFE4F608171818281B8
:101F6000938120E030E040E85FE30E947103882322
:101F700044F4FE01EF5FFE4F81E090E091838083A7
:101F800064C0FE01ED5FFE4F6081718182819381AB
:101F900020E03FEF4FE757E40E94110318160CF0C2
:101FA00043C0FE01E95FFE4F6081718182819381B0
:101FB00020E030E040E251E40E941702DC01CB0156
:101FC0008E010F5F1E4FBC01CD010E944100DC015C
:101FD000CB01F801918380831FC0FE01E150FF4FC8
:101FE00089E190E091838083FE01E150FF4F808181
:101FF00091810197F1F7FE01E150FF4F91838083BA
:10200000DE01AF5FBE4FFE01EF5FFE4F8081918129
:10201000019711969C938E93FE01EF5FFE4F808196
:1020200091810097D1F627C08E010F5F1E4FFE01F0
:10203000ED5FFE4F60817181828193810E9441003A
:10204000DC01CB01F80191838083DE01A350BF4FF7
:10205000FE01EF5FFE4F808191818D939C93FE0185
:10206000E350FF4F808191810197F1F7FE01E3502A
:10207000FF4F91838083FE01E55DFE4F608171819A
:1020800082810E947309FE01E750FF4F80E090E8D3
:10209000ABE3B5E480839183A283B3838E010B50BD
:1020A0001F4FFE01E750FF4F608171818281938154
:1020B00020E030E04AE753E40E941702DC01CB0144
:1020C000F80180839183A283B383FE01EB50FF4F1D
:1020D000608171818281938120E030E040E85FE39C
:1020E0000E947103882344F4FE01ED50FF4F81E00C
:1020F00090E09183808364C0FE01EB50FF4F6081CC
:1021000071818281938120E03FEF4FE757E40E9485
:10211000110318160CF043C0FE01E750FF4F608119
:1021200071818281938120E030E040E251E40E949D
:102130001702DC01CB018E010D501F4FBC01CD01F8
:102140000E944100DC01CB01F801918380831FC014
:10215000FE01EF50FF4F89E190E091838083FE0103
:10216000EF50FF4F808191810197F1F7FE01EF5011
:10217000FF4F91838083DE01AD50BF4FFE01ED50D4
:10218000FF4F80819181019711969C938E93FE0160
:10219000ED50FF4F808191810097D1F627C08E01CD
:1021A0000D501F4FFE01EB50FF4F60817181828106
:1021B00093810E944100DC01CB01F801918380836F
:1021C000DE01A151BF4FFE01ED50FF4F8081918193
:1021D0008D939C93FE01E151FF4F80819181019786
:1021E000F1F7FE01E151FF4F91838083FE01E25D33
:1021F000FE4F6081718182810E947309FE01E55169
:10220000FF4F80E090E8ABE3B5E480839183A28345
:10221000B3838E0109511F4FFE01E551FF4F6081CD
:1022200071818281938120E030E04AE753E40E948B
:102230001702DC01CB01F80180839183A283B38371
:10224000FE01E951FF4F608171818281938120E01D
:1022500030E040E85FE30E947103882344F4FE010C
:10226000EB51FF4F81E090E09183808364C0FE01D9
:10227000E951FF4F608171818281938120E03FEFBE
:102280004FE757E40E94110318160CF043C0FE01FB
:10229000E551FF4F608171818281938120E030E0C0
:1022A00040E251E40E941702DC01CB018E010B5188
:1022B0001F4FBC01CD010E944100DC01CB01F801A0
:1022C000918380831FC0FE01ED51FF4F89E190E0B3
:1022D00091838083FE01ED51FF4F808191810197B1
:1022E000F1F7FE01ED51FF4F91838083DE01AB5189
:1022F000BF4FFE01EB51FF4F8081918101971196F5
:102300009C938E93FE01EB51FF4F8081918100974A
:10231000D1F627C08E010B511F4FFE01E951FF4F2F
:1023200060817181828193810E944100DC01CB0137
:10233000F80191838083DE01AF51BF4FFE01EB5165
:10234000FF4F808191818D939C93FE01EF51FF4F50
:10235000808191810197F1F7FE01EF51FF4F918349
:102360008083FE01EF5CFE4F6081718182810E945B
:102370007309FE01E352FF4F80E090E8ABE3B5E460
:1023800080839183A283B3838E0107521F4FFE0186
:10239000E352FF4F608171818281938120E030E0C0
:1023A0004AE753E40E941702DC01CB01F801808365
:1023B0009183A283B383FE01E752FF4F6081718155
:1023C0008281938120E030E040E85FE30E94710366
:1023D000882344F4FE01E952FF4F81E090E09183AD
:1023E000808364C0FE01E752FF4F6081718182816A
:1023F000938120E03FEF4FE757E40E941103181646
:102400000CF043C0FE01E352FF4F60817181828175
:10241000938120E030E040E251E40E941702DC01A9
:10242000CB018E0109521F4FBC01CD010E9441001A
:10243000DC01CB01F801918380831FC0FE01EB52C8
:10244000FF4F89E190E091838083FE01EB52FF4FC3
:10245000808191810197F1F7FE01EB52FF4F91834B
:102460008083DE01A952BF4FFE01E952FF4F8081F8
:102470009181019711969C938E93FE01E952FF4F33
:10248000808191810097D1F627C08E0109521F4F9C
:10249000FE01E752FF4F60817181828193810E942A
:1024A0004100DC01CB01F80191838083DE01AD5254
:1024B000BF4FFE01E952FF4F808191818D939C9324
:1024C000FE01ED52FF4F808191810197F1F7FE01EE
:1024D000ED52FF4F91838083FE01EC5CFE4F6081E3
:1024E000718182810E947309FE01E153FF4F80E0F8
:1024F00090E8ABE3B5E480839183A283B3838E013C
:1025000005531F4FFE01E153FF4F608171818281AE
:10251000938120E030E04AE753E40E941702DC0197
:10252000CB01F80180839183A283B383FE01E5533D
:10253000FF4F608171818281938120E030E040E82B
:102540005FE30E947103882344F4FE01E753FF4FC9
:1025500081E090E09183808364C0FE01E553FF4FEA
:10256000608171818281938120E03FEF4FE757E4E2
:102570000E94110318160CF043C0FE01E153FF4FF7
:10258000608171818281938120E030E040E251E4FA
:102590000E941702DC01CB018E0107531F4FBC01C3
:1025A000CD010E944100DC01CB01F80191838083C1
:1025B0001FC0FE01E953FF4F89E190E091838083C2
:1025C000FE01E953FF4F808191810197F1F7FE01F0
:1025D000E953FF4F91838083DE01A753BF4FFE0174
:1025E000E753FF4F80819181019711969C938E93C1
:1025F000FE01E753FF4F808191810097D1F627C0FC
:102600008E0107531F4FFE01E553FF4F608171811B
:10261000828193810E944100DC01CB01F80191830A
:102620008083DE01AB53BF4FFE01E753FF4F808134
:1026300091818D939C93FE01EB53FF4F808191819B
:102640000197F1F7FE01EB53FF4F91838083FE0169
:10265000EC5CFE4F6081718182810E949209FE01D3
:10266000EF53FF4F80E090E8ABE3B5E480839183C4
:10267000A283B3838E0103541F4FFE01EF53FF4F1C
:10268000608171818281938120E030E04AE753E4E8
:102690000E941702DC01CB01F80180839183A283A1
:1026A000B383FE01E354FF4F608171818281938186
:1026B00020E030E040E85FE30E947103882344F4A7
:1026C000FE01E554FF4F81E090E09183808364C078
:1026D000FE01E354FF4F608171818281938120E08C
:1026E0003FEF4FE757E40E94110318160CF043C068
:1026F000FE01EF53FF4F608171818281938120E061
:1027000030E040E251E40E941702DC01CB018E016F
:1027100005541F4FBC01CD010E944100DC01CB01DB
:10272000F801918380831FC0FE01E754FF4F89E1C8
:1027300090E091838083FE01E754FF4F8081918177
:102740000197F1F7FE01E754FF4F91838083DE018B
:10275000A554BF4FFE01E554FF4F80819181019741
:1027600011969C938E93FE01E554FF4F80819181D9
:102770000097D1F627C08E0105541F4FFE01E35488
:10278000FF4F60817181828193810E944100DC0151
:10279000CB01F80191838083DE01A954BF4FFE0174
:1027A000E554FF4F808191818D939C93FE01E95404
:1027B000FF4F808191810197F1F7FE01E954FF4FAE
:1027C00091838083FE01EF5CFE4F60817181828185
:1027D0000E949209FE01ED54FF4F80E090E8ABE3C8
:1027E000B5E480839183A283B3838E0101551F4F8B
:1027F000FE01ED54FF4F608171818281938120E061
:1028000030E04AE753E40E941702DC01CB01F801F3
:1028100080839183A283B383FE01E155FF4F6081E2
:1028200071818281938120E030E040E85FE30E9483
:102830007103882344F4FE01E355FF4F81E090E0EB
:102840009183808364C0FE01E155FF4F60817181F7
:102850008281938120E03FEF4FE757E40E9411030C
:1028600018160CF043C0FE01ED54FF4F60817181DA
:102870008281938120E030E040E251E40E9417021F
:10288000DC01CB018E0103551F4FBC01CD010E941D
:102890004100DC01CB01F801918380831FC0FE0160
:1028A000E555FF4F89E190E091838083FE01E55576
:1028B000FF4F808191810197F1F7FE01E555FF4FB0
:1028C00091838083DE01A355BF4FFE01E355FF4F87
:1028D00080819181019711969C938E93FE01E3551F
:1028E000FF4F808191810097D1F627C08E0103555B
:1028F0001F4FFE01E155FF4F6081718182819381FD
:102900000E944100DC01CB01F80191838083DE014C
:10291000A755BF4FFE01E355FF4F808191818D93F5
:102920009C93FE01E755FF4F808191810197F1F75C
:10293000FE01E755FF4F91838083FE01E25DFE4F6C
:102940006081718182810E949209FE01EB55FF4FE7
:1029500080E090E8ABE3B5E480839183A283B38306
:102960008E010F551F4FFE01EB55FF4F60817181A6
:102970008281938120E030E04AE753E40E9417020D
:10298000DC01CB01F80180839183A283B383FE0134
:10299000EF55FF4F608171818281938120E030E0AB
:1029A00040E85FE30E947103882344F4FE01E1568E
:1029B000FF4F81E090E09183808364C0FE01EF557A
:1029C000FF4F608171818281938120E03FEF4FE76B
:1029D00057E40E94110318160CF043C0FE01EB559A
:1029E000FF4F608171818281938120E030E040E27D
:1029F00051E40E941702DC01CB018E0101561F4FEA
:102A0000BC01CD010E944100DC01CB01F8019183A2
:102A100080831FC0FE01E356FF4F89E190E0918360
:102A20008083FE01E356FF4F808191810197F1F78A
:102A3000FE01E356FF4F91838083DE01A156BF4F15
:102A4000FE01E156FF4F80819181019711969C9381
:102A50008E93FE01E156FF4F808191810097D1F660
:102A600027C08E0101561F4FFE01EF55FF4F6081B9
:102A70007181828193810E944100DC01CB01F801C8
:102A800091838083DE01A556BF4FFE01E156FF4FC3
:102A9000808191818D939C93FE01E556FF4F80814B
:102AA00091810197F1F7FE01E556FF4F91838083F5
:102AB000FE01E55DFE4F6081718182810E94920975
:102AC000FE01E956FF4F80E090E8ABE3B5E4808378
:102AD0009183A283B3838E010D561F4FFE01E956E9
:102AE000FF4F608171818281938120E030E04AE76D
:102AF00053E40E941702DC01CB01F801808391832B
:102B0000A283B383FE01ED56FF4F60817181828104
:102B1000938120E030E040E85FE30E947103882366
:102B200044F4FE01EF56FF4F81E090E091838083F3
:102B300064C0FE01ED56FF4F6081718182819381F7
:102B400020E03FEF4FE757E40E94110318160CF006
:102B500043C0FE01E956FF4F6081718182819381FC
:102B600020E030E040E251E40E941702DC01CB019A
:102B70008E010F561F4FBC01CD010E944100DC01A8
:102B8000CB01F801918380831FC0FE01E157FF4F05
:102B900089E190E091838083FE01E157FF4F8081BE
:102BA00091810197F1F7FE01E157FF4F91838083F7
:102BB000DE01AF56BF4FFE01EF56FF4F808191817E
:102BC000019711969C938E93FE01EF56FF4F8081E3
:102BD00091810097D1F627C08E010F561F4FFE013D
:102BE000ED56FF4F60817181828193810E94410087
:102BF000DC01CB01F80191838083DE01A357BF4F35
:102C0000FE01EF56FF4F808191818D939C93FE01D1
:102C1000E357FF4F808191810197F1F7FE01E35760
:102C2000FF4F91838083FE01E85DFE4F60817181DB
:102C300082810E949209FE01E757FF4F80E090E8F1
:102C4000ABE3B5E480839183A283B3838E010B57FA
:102C50001F4FFE01E757FF4F608171818281938191
:102C600020E030E04AE753E40E941702DC01CB0188
:102C7000F80180839183A283B383FE01EB57FF4F5A
:102C8000608171818281938120E030E040E85FE3E0
:102C90000E947103882344F4FE01ED57FF4F81E049
:102CA00090E09183808364C0FE01EB57FF4F608109
:102CB00071818281938120E03FEF4FE757E40E94CA
:102CC000110318160CF043C0FE01E757FF4F608157
:102CD00071818281938120E030E040E251E40E94E2
:102CE0001702DC01CB018E010D571F4FBC01CD0136
:102CF0000E944100DC01CB01F801918380831FC059
:102D0000FE01EF57FF4F89E190E091838083FE0140
:102D1000EF57FF4F808191810197F1F7FE01EF5747
:102D2000FF4F91838083DE01AD57BF4FFE01ED570A
:102D3000FF4F80819181019711969C938E93FE01A4
:102D4000ED57FF4F808191810097D1F647C48E01E6
:102D50000D571F4FFE01EB57FF4F6081718182813C
:102D600093810E944100DC01CB01F80191838083B3
:102D7000DE01A158BF4FFE01ED57FF4F80819181C9
:102D800011969C938E93FE01E158FF4F80819181B3
:102D90000197F1F7FE01E158FF4F918380831EC434
:102DA000FE01E15EFE4F6081718182810E94C41C40
:102DB000882309F013C4FE01E85DFE4F6081718134
:102DC00082810E947309FE01EC5CFE4F608171817B
:102DD00082810E947309FE01E558FF4F80E090E870
:102DE000ABE3B5E480839183A283B3838E0109585A
:102DF0001F4FFE01E558FF4F6081718182819381F1
:102E000020E030E04AE753E40E941702DC01CB01E6
:102E1000F80180839183A283B383FE01E958FF4FB9
:102E2000608171818281938120E030E040E85FE33E
:102E30000E947103882344F4FE01EB58FF4F81E0A8
:102E400090E09183808364C0FE01E958FF4F608168
:102E500071818281938120E03FEF4FE757E40E9428
:102E6000110318160CF043C0FE01E558FF4F6081B6
:102E700071818281938120E030E040E251E40E9440
:102E80001702DC01CB018E010B581F4FBC01CD0195
:102E90000E944100DC01CB01F801918380831FC0B7
:102EA000FE01ED58FF4F89E190E091838083FE01A0
:102EB000ED58FF4F808191810197F1F7FE01ED58A8
:102EC000FF4F91838083DE01AB58BF4FFE01EB586B
:102ED000FF4F80819181019711969C938E93FE0103
:102EE000EB58FF4F808191810097D1F627C08E016A
:102EF0000B581F4FFE01E958FF4F6081718182819D
:102F000093810E944100DC01CB01F8019183808311
:102F1000DE01AF58BF4FFE01EB58FF4F808191811A
:102F20008D939C93FE01EF58FF4F80819181019713
:102F3000F1F7FE01EF58FF4F91838083FE01E55DBD
:102F4000FE4F6081718182810E947309FE01EF5CF6
:102F5000FE4F6081718182810E947309FE01E359F5
:102F6000FF4F80E090E8ABE3B5E480839183A283D8
:102F7000B3838E0107591F4FFE01E359FF4F608154
:102F800071818281938120E030E04AE753E40E941E
:102F90001702DC01CB01F80180839183A283B38304
:102FA000FE01E759FF4F608171818281938120E0AA
:102FB00030E040E85FE30E947103882344F4FE019F
:102FC000E959FF4F81E090E09183808364C0FE0166
:102FD000E759FF4F608171818281938120E03FEF4B
:102FE0004FE757E40E94110318160CF043C0FE018E
:102FF000E359FF4F608171818281938120E030E04D
:1030000040E251E40E941702DC01CB018E01095914
:103010001F4FBC01CD010E944100DC01CB01F80132
:10302000918380831FC0FE01EB59FF4F89E190E03F
:1030300091838083FE01EB59FF4F8081918101973D
:10304000F1F7FE01EB59FF4F91838083DE01A9590F
:10305000BF4FFE01E959FF4F808191810197119681
:103060009C938E93FE01E959FF4F808191810097D7
:10307000D1F627C08E0109591F4FFE01E759FF4FB6
:1030800060817181828193810E944100DC01CB01CA
:10309000F80191838083DE01AD59BF4FFE01E959EC
:1030A000FF4F808191818D939C93FE01ED59FF4FDD
:1030B000808191810197F1F7FE01ED59FF4F9183D6
:1030C0008083FE01E25DFE4F6081718182810E94FA
:1030D0007309FE01E15AFF4F80E090E6AAEEB6E4E4
:1030E00080839183A283B3838E01055A1F4FFE0113
:1030F000E15AFF4F608171818281938120E030E04D
:103100004AE753E40E941702DC01CB01F8018083F7
:103110009183A283B383FE01E55AFF4F60817181E1
:103120008281938120E030E040E85FE30E947103F8
:10313000882344F4FE01E75AFF4F81E090E0918339
:10314000808364C0FE01E55AFF4F608171818281F6
:10315000938120E03FEF4FE757E40E9411031816D8
:103160000CF043C0FE01E15AFF4F60817181828102
:10317000938120E030E040E251E40E941702DC013C
:10318000CB018E01075A1F4FBC01CD010E944100A7
:10319000DC01CB01F801918380831FC0FE01E95A55
:1031A000FF4F89E190E091838083FE01E95AFF4F50
:1031B000808191810197F1F7FE01E95AFF4F9183D8
:1031C0008083DE01A75ABF4FFE01E75AFF4F80817F
:1031D0009181019711969C938E93FE01E75AFF4FC0
:1031E000808191810097D1F627C08E01075A1F4F29
:1031F000FE01E55AFF4F60817181828193810E94B7
:103200004100DC01CB01F80191838083DE01AB5AE0
:10321000BF4FFE01E75AFF4F808191818D939C93B0
:10322000FE01EB5AFF4F808191810197F1F7FE017A
:10323000EB5AFF4F91838083FE01E25DFE4F608178
:10324000718182810E949209FE01EF5AFF4F80E056
:1032500090E8ABE3B5E480839183A283B3838E01CE
:10326000035B1F4FFE01EF5AFF4F60817181828126
:10327000938120E030E04AE753E40E941702DC012A
:10328000CB01F80180839183A283B383FE01E35BCA
:10329000FF4F608171818281938120E030E040E8BE
:1032A0005FE30E947103882344F4FE01E55BFF4F56
:1032B00081E090E09183808364C0FE01E35BFF4F77
:1032C000608171818281938120E03FEF4FE757E475
:1032D0000E94110318160CF043C0FE01EF5AFF4F75
:1032E000608171818281938120E030E040E251E48D
:1032F0000E941702DC01CB018E01055B1F4FBC0150
:10330000CD010E944100DC01CB01F8019183808353
:103310001FC0FE01E75BFF4F89E190E0918380834E
:10332000FE01E75BFF4F808191810197F1F7FE017C
:10333000E75BFF4F91838083DE01A55BBF4FFE01FA
:10334000E55BFF4F80819181019711969C938E934D
:10335000FE01E55BFF4F808191810097D1F627C088
:103360008E01055B1F4FFE01E35BFF4F60817181A2
:10337000828193810E944100DC01CB01F80191839D
:103380008083DE01A95BBF4FFE01E55BFF4F8081BB
:1033900091818D939C93FE01E95BFF4F8081918128
:1033A0000197F1F7FE01E95BFF4F91838083FE01F6
:1033B000E55DFE4F6081718182810E949209FE016C
:1033C000EF5CFE4F6081718182810E949209FE0153
:1033D000ED5BFF4F80E090E8ABE3B5E48083918341
:1033E000A283B3838E01015C1F4FFE01ED5BFF4F93
:1033F000608171818281938120E030E04AE753E46B
:103400000E941702DC01CB01F80180839183A28323
:10341000B383FE01FF96608171818281938120E0F8
:1034200030E040E85FE30E94710388232CF481E0E0
:1034300090E09EAF8DAF46C0FE01FF966081718126
:103440008281938120E03FEF4FE757E40E94110310
:10345000181664F5FE01ED5BFF4F6081718182817A
:10346000938120E030E040E251E40E941702DC0149
:10347000CB01BC01CD010E944100DC01CB019EAF1C
:103480008DAF0FC089E190E09CAF8BAF8BAD9CAD51
:103490000197F1F79CAF8BAF8DAD9EAD01979EAFBD
:1034A0008DAF8DAD9EAD009769F716C0FE01FF96FA
:1034B00060817181828193810E944100DC01CB0196
:1034C0009EAF8DAF8DAD9EAD9AAF89AF89AD9AADF0
:1034D0000197F1F79AAF89AFFE01E85DFE4F608179
:1034E000718182810E949209FE01EC5CFE4F608135
:1034F000718182810E94920980E090E8ABE3B5E49B
:103500008DAB9EABAFABB8AF6DA97EA98FA998ADBF
:1035100020E030E04AE753E40E941702DC01CB01CF
:1035200089AB9AABABABBCAB69A97AA98BA99CA9B7
:1035300020E030E040E85FE30E94710388232CF430
:1035400081E090E098AB8FA73FC069A97AA98BA9C9
:103550009CA920E03FEF4FE757E40E9411031816A3
:103560004CF56DA97EA98FA998AD20E030E040E22E
:1035700051E40E941702DC01CB01BC01CD010E9485
:103580004100DC01CB0198AB8FA70FC089E190E02F
:103590009EA78DA78DA59EA50197F1F79EA78DA744
:1035A0008FA598A9019798AB8FA78FA598A9009789
:1035B00069F714C069A97AA98BA99CA90E94410046
:1035C000DC01CB0198AB8FA78FA598A99CA78BA7EF
:1035D0008BA59CA50197F1F79CA78BA7FE01EB5D3E
:1035E000FE4F6081718182810E94C41C882311F486
:1035F0000C94650E0C94570EFE01EE5DFE4F60813B
:10360000718182810E94C41C882311F00C94570E92
:1036100086C1FE01E95CFE4F6081718182810E945A
:10362000730980E09BE1A7E3BAE48FA398A7A9A759
:10363000BAA76FA178A589A59AA520E030E04AE74E
:1036400053E40E941702DC01CB018BA39CA3ADA322
:10365000BEA36BA17CA18DA19EA120E030E040E83B
:103660005FE30E94710388232CF481E090E09AA329
:1036700089A33FC06BA17CA18DA19EA120E03FEF5B
:103680004FE757E40E94110318164CF56FA178A577
:1036900089A59AA520E030E040E251E40E9417029B
:1036A000DC01CB01BC01CD010E944100DC01CB015A
:1036B0009AA389A30FC089E190E098A38F8F8F8D83
:1036C00098A10197F1F798A38F8F89A19AA10197EB
:1036D0009AA389A389A19AA1009769F714C06BA145
:1036E0007CA18DA19EA10E944100DC01CB019AA387
:1036F00089A389A19AA19E8F8D8F8D8D9E8D019713
:10370000F1F79E8F8D8FFE01E95CFE4F6081718124
:1037100082810E949209FE01E65CFE4F6081718108
:1037200082810E94730980E09CE7A2E9B8E4898F56
:103730009A8FAB8FBC8F698D7A8D8B8D9C8D20E09D
:1037400030E04AE753E40E941702DC01CB018D8B85
:103750009E8BAF8BB88F6D897E898F89988D20E085
:1037600030E040E85FE30E94710388232CF481E09D
:1037700090E09C8B8B8B3FC06D897E898F89988D63
:1037800020E03FEF4FE757E40E94110318164CF575
:10379000698D7A8D8B8D9C8D20E030E040E251E484
:1037A0000E941702DC01CB01BC01CD010E94410047
:1037B000DC01CB019C8B8B8B0FC089E190E09A8B55
:1037C000898B89899A890197F1F79A8B898B8B89E3
:1037D0009C8901979C8B8B8B8B899C89009769F7BF
:1037E00014C06D897E898F89988D0E944100DC010B
:1037F000CB019C8B8B8B8B899C89988B8F878F853A
:1038000098890197F1F7988B8F87FE01E65CFE4F50
:103810006081718182810E949209FE01E35CFE4F0A
:103820006081718182810E94730980E09CE7A2E936
:10383000B8E48B879C87AD87BE876B857C858D853B
:103840009E8520E030E04AE753E40E941702DC0145
:10385000CB018F839887A987BA876F8178858985FF
:103860009A8520E030E040E85FE30E9471038823FE
:103870002CF481E090E09E838D833FC06F8178853A
:1038800089859A8520E03FEF4FE757E40E941103B6
:1038900018164CF56B857C858D859E8520E030E083
:1038A00040E251E40E941702DC01CB01BC01CD01D2
:1038B0000E944100DC01CB019E838D830FC089E112
:1038C00090E09C838B838B819C810197F1F79C8393
:1038D0008B838D819E8101979E838D838D819E81B7
:1038E000009769F714C06F81788589859A850E9451
:1038F0004100DC01CB019E838D838D819E819A8363
:10390000898389819A810197F1F79A838983FE01DE
:10391000E35CFE4F6081718182810E949209FE0109
:10392000EE5DFE4F6081718182810E94C41C8823FC
:1039300009F46FCE0C94570EDF93CF9300D00F9203
:10394000CDB7DEB769837A838B8389819A81692FAA
:1039500040E00E94E3058B81813039F489819A81AE
:10396000692F41E00E94800709C08B81882331F4D0
:1039700089819A81692F40E00E9480070F900F9003
:103980000F90CF91DF910895DF93CF9300D000D0B7
:10399000CDB7DEB76A837B838C8319828A819B8152
:1039A000692F9E012F5F3F4FA9010E9483088981E3
:1039B0000F900F900F900F90CF91DF9108952F925D
:1039C0003F924F925F926F927F928F929F92AF92AF
:1039D000BF92CF92DF92EF92FF920F931F93CF93FC
:1039E000DF93CDB7DEB7CA1BDB0B0FB6F894DEBF93
:1039F0000FBECDBF09942A88398848885F846E84B9
:103A00007D848C849B84AA84B984C884DF80EE8002
:103A1000FD800C811B81AA81B981CE0FD11D0FB60B
:103A2000F894DEBF0FBECDBFED010895F894FFCF2F
:103A30000000000000000000020401020301020275
:103A40000100040100030100020100010100000166
:103A50000103010300010102010101010100010054
:00000001FF
